{
  "contractName": "Ownable",
  "abi": [
    {
      "constant": false,
      "inputs": [],
      "name": "constructor",
      "outputs": [],
      "payable": false,
      "stateMutability": "nonpayable",
      "type": "function"
    }
  ],
  "bytecode": "0x6080604052348015600f57600080fd5b5060c68061001e6000396000f300608060405260043610603f576000357c0100000000000000000000000000000000000000000000000000000000900463ffffffff16806390fa17bb146044575b600080fd5b348015604f57600080fd5b5060566058565b005b336000806101000a81548173ffffffffffffffffffffffffffffffffffffffff021916908373ffffffffffffffffffffffffffffffffffffffff1602179055505600a165627a7a723058204ca08ca0803fa8a754d30bf671ab582d678351c29344150e7e16dbcd8ae9a0d60029",
  "source": "pragma solidity ^0.4.21;\r\ncontract Ownable{\r\n  address owner; //增加一个owner，存储智能合约的所有者\r\n  //定义一个函数修改器，用于保证当前函数调用者必须是合约的所有者\r\n  modifier onlyOwner(){\r\n    require(msg.sender == owner);\r\n    _; // 占位符，使用这个函数修改器的函数代码\r\n  }\r\n  function constructor() public{\r\n    owner = msg.sender; //合约的创建者作为合约的所有者\r\n  }\r\n}\r\n",
  "sourcePath": "C:\\Users\\Administrator\\Ethlearning\\robotshop\\contracts\\Ownable.sol",
  "compiler": {
    "name": "solc",
    "version": "0.4.24+commit.e67f0147.Emscripten.clang"
  },
  "schemaVersion": "2.0.0",
  "updatedAt": "2018-07-06T07:54:20.969Z"
}