{
  "contractName": "RobotShop",
  "abi": [
    {
      "constant": true,
      "inputs": [
        {
          "name": "",
          "type": "uint256"
        }
      ],
      "name": "robots",
      "outputs": [
        {
          "name": "id",
          "type": "uint256"
        },
        {
          "name": "seller",
          "type": "address"
        },
        {
          "name": "buyer",
          "type": "address"
        },
        {
          "name": "name",
          "type": "string"
        },
        {
          "name": "description",
          "type": "string"
        },
        {
          "name": "price",
          "type": "uint256"
        }
      ],
      "payable": false,
      "stateMutability": "view",
      "type": "function"
    },
    {
      "anonymous": false,
      "inputs": [
        {
          "indexed": true,
          "name": "_id",
          "type": "uint256"
        },
        {
          "indexed": true,
          "name": "_seller",
          "type": "address"
        },
        {
          "indexed": false,
          "name": "_name",
          "type": "string"
        },
        {
          "indexed": false,
          "name": "_price",
          "type": "uint256"
        }
      ],
      "name": "LogSellRobot",
      "type": "event"
    },
    {
      "anonymous": false,
      "inputs": [
        {
          "indexed": true,
          "name": "_id",
          "type": "uint256"
        },
        {
          "indexed": true,
          "name": "_seller",
          "type": "address"
        },
        {
          "indexed": true,
          "name": "_buyer",
          "type": "address"
        },
        {
          "indexed": false,
          "name": "_name",
          "type": "string"
        },
        {
          "indexed": false,
          "name": "_price",
          "type": "uint256"
        }
      ],
      "name": "LogBuyRobot",
      "type": "event"
    },
    {
      "constant": false,
      "inputs": [],
      "name": "kill",
      "outputs": [],
      "payable": false,
      "stateMutability": "nonpayable",
      "type": "function"
    },
    {
      "constant": false,
      "inputs": [
        {
          "name": "_name",
          "type": "string"
        },
        {
          "name": "_description",
          "type": "string"
        },
        {
          "name": "_price",
          "type": "uint256"
        }
      ],
      "name": "sellRobot",
      "outputs": [],
      "payable": false,
      "stateMutability": "nonpayable",
      "type": "function"
    },
    {
      "constant": true,
      "inputs": [],
      "name": "getRobotsForSale",
      "outputs": [
        {
          "name": "",
          "type": "uint256[]"
        }
      ],
      "payable": false,
      "stateMutability": "view",
      "type": "function"
    },
    {
      "constant": false,
      "inputs": [],
      "name": "constructor",
      "outputs": [],
      "payable": false,
      "stateMutability": "nonpayable",
      "type": "function"
    },
    {
      "constant": true,
      "inputs": [],
      "name": "getNumberOfRobots",
      "outputs": [
        {
          "name": "",
          "type": "uint256"
        }
      ],
      "payable": false,
      "stateMutability": "view",
      "type": "function"
    },
    {
      "constant": false,
      "inputs": [
        {
          "name": "_id",
          "type": "uint256"
        }
      ],
      "name": "buyRobot",
      "outputs": [],
      "payable": true,
      "stateMutability": "payable",
      "type": "function"
    }
  ],
  "bytecode": "0x608060405234801561001057600080fd5b50610d9a806100206000396000f300608060405260043610610083576000357c0100000000000000000000000000000000000000000000000000000000900463ffffffff1680631ec978d41461008857806341c0e1b5146100f457806349045bf71461010b57806390fa17bb146101c4578063a03937c5146101db578063b331ae5714610361578063feabb1a214610381575b600080fd5b34801561009457600080fd5b5061009d6103ac565b6040518080602001828103825283818151815260200191508051906020019060200280838360005b838110156100e05780820151818401526020810190506100c5565b505050509050019250505060405180910390f35b34801561010057600080fd5b50610109610527565b005b34801561011757600080fd5b506101c2600480360381019080803590602001908201803590602001908080601f0160208091040260200160405190810160405280939291908181526020018383808284378201915050505050509192919290803590602001908201803590602001908080601f0160208091040260200160405190810160405280939291908181526020018383808284378201915050505050509192919290803590602001909291905050506105bc565b005b3480156101d057600080fd5b506101d96107e2565b005b3480156101e757600080fd5b5061020660048036038101908080359060200190929190505050610824565b604051808781526020018673ffffffffffffffffffffffffffffffffffffffff1673ffffffffffffffffffffffffffffffffffffffff1681526020018573ffffffffffffffffffffffffffffffffffffffff1673ffffffffffffffffffffffffffffffffffffffff1681526020018060200180602001848152602001838103835286818151815260200191508051906020019080838360005b838110156102ba57808201518184015260208101905061029f565b50505050905090810190601f1680156102e75780820380516001836020036101000a031916815260200191505b50838103825285818151815260200191508051906020019080838360005b83811015610320578082015181840152602081019050610305565b50505050905090810190601f16801561034d5780820380516001836020036101000a031916815260200191505b509850505050505050505060405180910390f35b61037f600480360381019080803590602001909291905050506109d0565b005b34801561038d57600080fd5b50610396610cbf565b6040518082815260200191505060405180910390f35b606080600080606060006002546040519080825280602002602001820160405280156103e75781602001602082028038833980820191505090505b50945060009350600192505b6002548311151561049c5760006001600085815260200190815260200160002060020160009054906101000a900473ffffffffffffffffffffffffffffffffffffffff1673ffffffffffffffffffffffffffffffffffffffff16141561048f576001600084815260200190815260200160002060000154858581518110151561047857fe5b906020019060200201818152505083806001019450505b82806001019350506103f3565b836040519080825280602002602001820160405280156104cb5781602001602082028038833980820191505090505b509150600090505b8381101561051c5784818151811015156104e957fe5b90602001906020020151828281518110151561050157fe5b906020019060200201818152505080806001019150506104d3565b819550505050505090565b6000809054906101000a900473ffffffffffffffffffffffffffffffffffffffff1673ffffffffffffffffffffffffffffffffffffffff163373ffffffffffffffffffffffffffffffffffffffff1614151561058257600080fd5b6000809054906101000a900473ffffffffffffffffffffffffffffffffffffffff1673ffffffffffffffffffffffffffffffffffffffff16ff5b60026000815480929190600101919050555060c06040519081016040528060025481526020013373ffffffffffffffffffffffffffffffffffffffff168152602001600073ffffffffffffffffffffffffffffffffffffffff168152602001848152602001838152602001828152506001600060025481526020019081526020016000206000820151816000015560208201518160010160006101000a81548173ffffffffffffffffffffffffffffffffffffffff021916908373ffffffffffffffffffffffffffffffffffffffff16021790555060408201518160020160006101000a81548173ffffffffffffffffffffffffffffffffffffffff021916908373ffffffffffffffffffffffffffffffffffffffff16021790555060608201518160030190805190602001906106f4929190610cc9565b506080820151816004019080519060200190610711929190610cc9565b5060a082015181600501559050503373ffffffffffffffffffffffffffffffffffffffff166002547f44ef772d38c9a3fd80ac2fc2d4574834aaf20f20855dde670e255c10a9c88e1285846040518080602001838152602001828103825284818151815260200191508051906020019080838360005b838110156107a2578082015181840152602081019050610787565b50505050905090810190601f1680156107cf5780820380516001836020036101000a031916815260200191505b50935050505060405180910390a3505050565b336000806101000a81548173ffffffffffffffffffffffffffffffffffffffff021916908373ffffffffffffffffffffffffffffffffffffffff160217905550565b60016020528060005260406000206000915090508060000154908060010160009054906101000a900473ffffffffffffffffffffffffffffffffffffffff16908060020160009054906101000a900473ffffffffffffffffffffffffffffffffffffffff1690806003018054600181600116156101000203166002900480601f0160208091040260200160405190810160405280929190818152602001828054600181600116156101000203166002900480156109225780601f106108f757610100808354040283529160200191610922565b820191906000526020600020905b81548152906001019060200180831161090557829003601f168201915b505050505090806004018054600181600116156101000203166002900480601f0160208091040260200160405190810160405280929190818152602001828054600181600116156101000203166002900480156109c05780601f10610995576101008083540402835291602001916109c0565b820191906000526020600020905b8154815290600101906020018083116109a357829003601f168201915b5050505050908060050154905086565b6000806002541115156109e257600080fd5b6000821180156109f457506002548211155b15156109ff57600080fd5b60016000838152602001908152602001600020905060008160020160009054906101000a900473ffffffffffffffffffffffffffffffffffffffff1673ffffffffffffffffffffffffffffffffffffffff16141515610a5d57600080fd5b8060010160009054906101000a900473ffffffffffffffffffffffffffffffffffffffff1673ffffffffffffffffffffffffffffffffffffffff163373ffffffffffffffffffffffffffffffffffffffff1614151515610abc57600080fd5b806005015434141515610ace57600080fd5b338160020160006101000a81548173ffffffffffffffffffffffffffffffffffffffff021916908373ffffffffffffffffffffffffffffffffffffffff1602179055508060010160009054906101000a900473ffffffffffffffffffffffffffffffffffffffff1673ffffffffffffffffffffffffffffffffffffffff166108fc349081150290604051600060405180830381858888f19350505050158015610b7b573d6000803e3d6000fd5b508060020160009054906101000a900473ffffffffffffffffffffffffffffffffffffffff1673ffffffffffffffffffffffffffffffffffffffff168160010160009054906101000a900473ffffffffffffffffffffffffffffffffffffffff1673ffffffffffffffffffffffffffffffffffffffff16837fae1e1fe3cb5fc96b5711370fef1c947d398d5a39746292bf8e2e719515db1f568460030185600501546040518080602001838152602001828103825284818154600181600116156101000203166002900481526020019150805460018160011615610100020316600290048015610cac5780601f10610c8157610100808354040283529160200191610cac565b820191906000526020600020905b815481529060010190602001808311610c8f57829003601f168201915b5050935050505060405180910390a45050565b6000600254905090565b828054600181600116156101000203166002900490600052602060002090601f016020900481019282601f10610d0a57805160ff1916838001178555610d38565b82800160010185558215610d38579182015b82811115610d37578251825591602001919060010190610d1c565b5b509050610d459190610d49565b5090565b610d6b91905b80821115610d67576000816000905550600101610d4f565b5090565b905600a165627a7a72305820239eac8095092e1865e8cb69afa2ebc0ce60382e1046e4883a3430c30f07c4530029",
  "source": "pragma solidity ^0.4.21;\r\nimport \"./Ownable.sol\"; //引用智能合约文件\r\ncontract RobotShop is Ownable{\r\n  // 声明一个存储机器人的结构体，里面包含一个机器人所有的属性字段\r\n  struct Robot {\r\n    uint id; //唯一id，对应一个唯一的机器人\r\n    address seller; //当前卖家的以太坊账户地址\r\n    address buyer; //购买了该机器人的买家的以太坊账户地址\r\n    string name; //机器人的名称\r\n    string description; //机器人的功能描述\r\n    uint256 price; //机器人的出售价格\r\n  }\r\n  //声明一个mapping作为存储机器人的list\r\n  mapping (uint => Robot) public robots;\r\n  //记录机器人智能合约中机器人列表的总数下标\r\n  uint robotCounter;\r\n  //增加一个销毁函数，使用函数修改器，只能让合约所有者调用\r\n  function kill() public onlyOwner{\r\n    selfdestruct(owner);\r\n  }\r\n  //增加一个卖出机器人事件\r\n  event LogSellRobot(\r\n    // 增加一个参数\r\n    uint indexed _id,\r\n    address indexed _seller,\r\n    string _name,\r\n    uint256 _price\r\n  );\r\n  //增加一个购买机器人事件\r\n  event LogBuyRobot(\r\n    // 增加一个参数\r\n    uint indexed _id,\r\n    address indexed _seller,\r\n    address indexed _buyer,\r\n    string _name,\r\n    uint256 _price\r\n  );\r\n  //声明一个函数，在区块链上建立一笔出售机器人的记录\r\n  function sellRobot(string _name, string _description, uint256 _price) public {\r\n    robotCounter++; //首先对总数加一\r\n    //然后新建一个新的机器人记录在列表中\r\n    robots[robotCounter] = Robot(\r\n      robotCounter,\r\n      msg.sender,\r\n      0x0,\r\n      _name,\r\n      _description,\r\n      _price\r\n    );\r\n    // 触发事件\r\n    emit LogSellRobot(robotCounter,msg.sender, _name, _price);\r\n  }\r\n  //创建一个函数，获取所有机器人的总数\r\n  function getNumberOfRobots() public view returns (uint) {\r\n    return robotCounter;\r\n  }\r\n  // 返回所有的正在出售的机器人id列表\r\n  function getRobotsForSale() public view returns (uint[]) {\r\n    // 声明一个数组\r\n    uint[] memory robotIds = new uint[](robotCounter);\r\n    // 记录在售机器人的数量\r\n    uint numberOfRobotsForSale = 0;\r\n    // 循环所有机器人列表\r\n    for(uint i = 1; i <= robotCounter;  i++) {\r\n      // 保存尚未出售的机器人id\r\n      if(robots[i].buyer == 0x0) {\r\n        robotIds[numberOfRobotsForSale] = robots[i].id;\r\n        numberOfRobotsForSale++;\r\n      }\r\n    }\r\n    // 上面数组的大小不是我们想要的，重新声明一个更准确的数组，用于返回结果\r\n    uint[] memory forSale = new uint[](numberOfRobotsForSale);\r\n    for(uint j = 0; j < numberOfRobotsForSale; j++) {\r\n      forSale[j] = robotIds[j];\r\n    }\r\n    //返回最终的列表\r\n    return forSale;\r\n  }\r\n  function buyRobot(uint _id) payable public {\r\n    // 检查是否有待出售的机器人时，看robotCounter是否大于0\r\n    require(robotCounter > 0);\r\n    // 检查传入的id是否合法，是否存在这个机器人\r\n    require(_id > 0 && _id <= robotCounter);\r\n    // 根据id获取机器人信息\r\n    Robot storage robot = robots[_id];\r\n    // 检查机器人是否已被卖出\r\n    require(robot.buyer == 0X0);\r\n    // 不允许购买自己出售的机器人\r\n    require(msg.sender != robot.seller);\r\n    // 购买价格必须等于机器人价格\r\n    require(msg.value == robot.price);\r\n    // 校验通过，保存买家的账户地址，代表购买了该机器人\r\n    robot.buyer = msg.sender;\r\n    // 把钱转账给卖家账户\r\n    robot.seller.transfer(msg.value);\r\n    // 触发事件\r\n    emit LogBuyRobot(_id, robot.seller, robot.buyer, robot.name, robot.price);\r\n  }\r\n}\r\n",
  "sourcePath": "C:\\Users\\Administrator\\Ethlearning\\robotshop\\contracts\\RobotShop.sol",
  "compiler": {
    "name": "solc",
    "version": "0.4.24+commit.e67f0147.Emscripten.clang"
  },
  "schemaVersion": "2.0.0",
  "updatedAt": "2018-07-06T07:54:25.103Z"
}